{
  "contractName": "SimpleStorage",
  "abi": [
    {
      "inputs": [
        {
          "internalType": "string",
          "name": "_address",
          "type": "string"
        },
        {
          "internalType": "uint256",
          "name": "_landArea",
          "type": "uint256"
        },
        {
          "internalType": "string",
          "name": "_owner",
          "type": "string"
        }
      ],
      "name": "updateData",
      "outputs": [],
      "stateMutability": "nonpayable",
      "type": "function"
    },
    {
      "inputs": [],
      "name": "getAddress",
      "outputs": [
        {
          "internalType": "string",
          "name": "",
          "type": "string"
        }
      ],
      "stateMutability": "view",
      "type": "function"
    },
    {
      "inputs": [],
      "name": "getLandArea",
      "outputs": [
        {
          "internalType": "uint256",
          "name": "",
          "type": "uint256"
        }
      ],
      "stateMutability": "view",
      "type": "function"
    },
    {
      "inputs": [],
      "name": "getOwner",
      "outputs": [
        {
          "internalType": "string",
          "name": "",
          "type": "string"
        }
      ],
      "stateMutability": "view",
      "type": "function"
    }
  ],
  "bytecode": "0x608060405234801561001057600080fd5b5061030e806100206000396000f3fe608060405234801561001057600080fd5b506004361061004c5760003560e01c806338cc483114610051578063893d20e81461006f578063895f6bbf14610077578063ab6f79751461008e575b600080fd5b61005961009f565b6040516100669190610140565b60405180910390f35b610059610131565b61008c610085366004610231565b5060015550565b005b600154604051908152602001610066565b6060600080546100ae9061029e565b80601f01602080910402602001604051908101604052809291908181526020018280546100da9061029e565b80156101275780601f106100fc57610100808354040283529160200191610127565b820191906000526020600020905b81548152906001019060200180831161010a57829003601f168201915b5050505050905090565b6060600280546100ae9061029e565b600060208083528351808285015260005b8181101561016d57858101830151858201604001528201610151565b506000604082860101526040601f19601f8301168501019250505092915050565b634e487b7160e01b600052604160045260246000fd5b600082601f8301126101b557600080fd5b813567ffffffffffffffff808211156101d0576101d061018e565b604051601f8301601f19908116603f011681019082821181831017156101f8576101f861018e565b8160405283815286602085880101111561021157600080fd5b836020870160208301376000602085830101528094505050505092915050565b60008060006060848603121561024657600080fd5b833567ffffffffffffffff8082111561025e57600080fd5b61026a878388016101a4565b945060208601359350604086013591508082111561028757600080fd5b50610294868287016101a4565b9150509250925092565b600181811c908216806102b257607f821691505b6020821081036102d257634e487b7160e01b600052602260045260246000fd5b5091905056fea2646970667358221220aa67e85a9bab1a5c1397e00d55b166e04f0ce214e9df0cd39da89b09b1dce70464736f6c63430008130033",
  "immutableReferences": {},
  "source": "pragma solidity ^0.8.19;\r\n\r\ncontract SimpleStorage {\r\n    string _address;\r\n    uint landArea;\r\n    string _owner;\r\n\r\n    function updateData(string memory _address,uint _landArea, string memory _owner) external{\r\n        _address=_address;\r\n        landArea=_landArea;\r\n        _owner=_owner;\r\n    }\r\n\r\n    function getAddress() external view returns(string memory){\r\n        return _address;\r\n    }\r\n    function getLandArea() external view returns(uint){\r\n        return landArea;\r\n    }\r\n    function getOwner() external view returns(string memory){\r\n        return _owner;\r\n    }\r\n}",
  "sourcePath": "D:\\dhruvil\\Blockchain\\contracts\\SimpleStorage.sol",
  "compiler": {
    "name": "solc",
    "version": "0.8.19+commit.7dd6d404.Emscripten.clang"
  },
  "schemaVersion": "3.4.13",
  "updatedAt": "2023-04-24T06:57:49.024Z",
  "devdoc": {
    "kind": "dev",
    "methods": {},
    "version": 1
  },
  "userdoc": {
    "kind": "user",
    "methods": {},
    "version": 1
  }
}